{"abi":[{"type":"function","name":"allGroups","inputs":[{"name":"","type":"uint256","internalType":"uint256"}],"outputs":[{"name":"","type":"address","internalType":"address"}],"stateMutability":"view"},{"type":"function","name":"createDirectGroup","inputs":[{"name":"_name","type":"string","internalType":"string"},{"name":"_token","type":"address","internalType":"address"},{"name":"_members","type":"address[]","internalType":"address[]"}],"outputs":[{"name":"group","type":"address","internalType":"address"}],"stateMutability":"nonpayable"},{"type":"function","name":"createEscrowGroup","inputs":[{"name":"_name","type":"string","internalType":"string"},{"name":"_token","type":"address","internalType":"address"},{"name":"_members","type":"address[]","internalType":"address[]"},{"name":"_requiredDeposit","type":"uint256","internalType":"uint256"},{"name":"_depositDeadline","type":"uint256","internalType":"uint256"}],"outputs":[{"name":"group","type":"address","internalType":"address"}],"stateMutability":"nonpayable"},{"type":"function","name":"getAllGroups","inputs":[],"outputs":[{"name":"","type":"address[]","internalType":"address[]"}],"stateMutability":"view"},{"type":"function","name":"getGroupCount","inputs":[],"outputs":[{"name":"","type":"uint256","internalType":"uint256"}],"stateMutability":"view"},{"type":"function","name":"getGroupMode","inputs":[{"name":"group","type":"address","internalType":"address"}],"outputs":[{"name":"","type":"uint8","internalType":"enum ChainSplitFactory.GroupMode"}],"stateMutability":"view"},{"type":"function","name":"getGroupsByUser","inputs":[{"name":"user","type":"address","internalType":"address"}],"outputs":[{"name":"","type":"address[]","internalType":"address[]"}],"stateMutability":"view"},{"type":"function","name":"getGroupsPaginated","inputs":[{"name":"offset","type":"uint256","internalType":"uint256"},{"name":"limit","type":"uint256","internalType":"uint256"}],"outputs":[{"name":"groups","type":"address[]","internalType":"address[]"}],"stateMutability":"view"},{"type":"function","name":"groupModes","inputs":[{"name":"","type":"address","internalType":"address"}],"outputs":[{"name":"","type":"uint8","internalType":"enum ChainSplitFactory.GroupMode"}],"stateMutability":"view"},{"type":"function","name":"userGroups","inputs":[{"name":"","type":"address","internalType":"address"},{"name":"","type":"uint256","internalType":"uint256"}],"outputs":[{"name":"","type":"address","internalType":"address"}],"stateMutability":"view"},{"type":"event","name":"DirectGroupCreated","inputs":[{"name":"group","type":"address","indexed":true,"internalType":"address"},{"name":"creator","type":"address","indexed":true,"internalType":"address"},{"name":"name","type":"string","indexed":false,"internalType":"string"},{"name":"token","type":"address","indexed":false,"internalType":"address"},{"name":"memberCount","type":"uint256","indexed":false,"internalType":"uint256"}],"anonymous":false},{"type":"event","name":"EscrowGroupCreated","inputs":[{"name":"group","type":"address","indexed":true,"internalType":"address"},{"name":"creator","type":"address","indexed":true,"internalType":"address"},{"name":"name","type":"string","indexed":false,"internalType":"string"},{"name":"token","type":"address","indexed":false,"internalType":"address"},{"name":"memberCount","type":"uint256","indexed":false,"internalType":"uint256"},{"name":"requiredDeposit","type":"uint256","indexed":false,"internalType":"uint256"},{"name":"depositDeadline","type":"uint256","indexed":false,"internalType":"uint256"}],"anonymous":false},{"type":"error","name":"ChainSplitFactory__EmptyName","inputs":[]},{"type":"error","name":"ChainSplitFactory__InvalidDeadline","inputs":[]},{"type":"error","name":"ChainSplitFactory__InvalidMemberCount","inputs":[]},{"type":"error","name":"ChainSplitFactory__InvalidToken","inputs":[]},{"type":"error","name":"ChainSplitFactory__ZeroDeposit","inputs":[]}],"bytecode":{"object":"0x6080604052348015600e575f5ffd5b506156228061001c5f395ff3fe608060405234801561000f575f5ffd5b506004361061009b575f3560e01c806360a9e0971161006357806360a9e09714610136578063761b8f341461014957806391118c7414610174578063af5bda6714610187578063fd16c1d31461019a575f5ffd5b806305d54fee1461009f57806306545a93146100cf578063112259d6146100df57806321cd3cae1461010e578063318c47fd14610123575b5f5ffd5b6100b26100ad3660046108b9565b6101ad565b6040516001600160a01b0390911681526020015b60405180910390f35b5f546040519081526020016100c6565b6101016100ed36600461093a565b60026020525f908152604090205460ff1681565b6040516100c6919061095a565b610116610393565b6040516100c69190610980565b6101166101313660046109cb565b6103f2565b6100b26101443660046109eb565b6104fa565b61010161015736600461093a565b6001600160a01b03165f9081526002602052604090205460ff1690565b61011661018236600461093a565b61052e565b6100b2610195366004610a13565b6105a1565b6100b26101a8366004610aa2565b6107d7565b5f8481036101ce57604051631744656360e21b815260040160405180910390fd5b6001600160a01b0384166101f45760405162341d5d60e41b815260040160405180910390fd5b60028210806102035750601482115b15610221576040516339f6e21d60e21b815260040160405180910390fd5b5f868686868633604051610234906107fe565b61024396959493929190610b27565b604051809103905ff08015801561025c573d5f5f3e3d5ffd5b505f80546001810182557f290decd9548b62a8d60345a988386fc84ba6bc95484008f6362f93160ef3e5630180546001600160a01b0319166001600160a01b0384169081179091558152600260205260408120805460ff191690559092508291505b8381101561033d5760015f8686848181106102db576102db610b78565b90506020020160208101906102f0919061093a565b6001600160a01b03908116825260208083019390935260409091015f9081208054600180820183559183529390912090920180546001600160a01b031916918616919091179055016102be565b5060405133906001600160a01b038416907f6044b86132b9fb8c895491e93b301d8032bf6c12e583c6a3350be37731a5620590610381908b908b908b908a90610b8c565b60405180910390a35095945050505050565b60605f8054806020026020016040519081016040528092919081815260200182805480156103e857602002820191905f5260205f20905b81546001600160a01b031681526001909101906020018083116103ca575b5050505050905090565b5f54606090808410610413575050604080515f8152602081019091526104f4565b5f61041e8486610be3565b90508181111561042b5750805b5f6104368683610bf6565b90508067ffffffffffffffff81111561045157610451610bbb565b60405190808252806020026020018201604052801561047a578160200160208202803683370190505b5093505f5b818110156104ef575f6104928289610be3565b815481106104a2576104a2610b78565b905f5260205f20015f9054906101000a90046001600160a01b03168582815181106104cf576104cf610b78565b6001600160a01b039092166020928302919091019091015260010161047f565b505050505b92915050565b6001602052815f5260405f208181548110610513575f80fd5b5f918252602090912001546001600160a01b03169150829050565b6001600160a01b0381165f9081526001602090815260409182902080548351818402810184019094528084526060939283018282801561059557602002820191905f5260205f20905b81546001600160a01b03168152600190910190602001808311610577575b50505050509050919050565b5f8681036105c257604051631744656360e21b815260040160405180910390fd5b6001600160a01b0386166105e85760405162341d5d60e41b815260040160405180910390fd5b60028410806105f75750601484115b15610615576040516339f6e21d60e21b815260040160405180910390fd5b825f0361063557604051631815a3a360e21b815260040160405180910390fd5b42821161065557604051632ef6e61760e11b815260040160405180910390fd5b5f888888888888883360405161066a9061080b565b61067b989796959493929190610c09565b604051809103905ff080158015610694573d5f5f3e3d5ffd5b505f8054600180820183557f290decd9548b62a8d60345a988386fc84ba6bc95484008f6362f93160ef3e56390910180546001600160a01b0319166001600160a01b0385169081179091558252600260205260408220805460ff191690911790559092508291505b8581101561077b5760015f88888481811061071957610719610b78565b905060200201602081019061072e919061093a565b6001600160a01b03908116825260208083019390935260409091015f9081208054600180820183559183529390912090920180546001600160a01b031916918616919091179055016106fc565b5060405133906001600160a01b038416907fd01136d6b1898751550613ff1e23202240753842409945ed8b4519915e271b27906107c3908d908d908d908c908c908c90610c68565b60405180910390a350979650505050505050565b5f81815481106107e5575f80fd5b5f918252602090912001546001600160a01b0316905081565b61206e80610caa83390190565b6128d580612d1883390190565b5f5f83601f840112610828575f5ffd5b50813567ffffffffffffffff81111561083f575f5ffd5b602083019150836020828501011115610856575f5ffd5b9250929050565b80356001600160a01b0381168114610873575f5ffd5b919050565b5f5f83601f840112610888575f5ffd5b50813567ffffffffffffffff81111561089f575f5ffd5b6020830191508360208260051b8501011115610856575f5ffd5b5f5f5f5f5f606086880312156108cd575f5ffd5b853567ffffffffffffffff8111156108e3575f5ffd5b6108ef88828901610818565b909650945061090290506020870161085d565b9250604086013567ffffffffffffffff81111561091d575f5ffd5b61092988828901610878565b969995985093965092949392505050565b5f6020828403121561094a575f5ffd5b6109538261085d565b9392505050565b602081016002831061097a57634e487b7160e01b5f52602160045260245ffd5b91905290565b602080825282518282018190525f918401906040840190835b818110156109c05783516001600160a01b0316835260209384019390920191600101610999565b509095945050505050565b5f5f604083850312156109dc575f5ffd5b50508035926020909101359150565b5f5f604083850312156109fc575f5ffd5b610a058361085d565b946020939093013593505050565b5f5f5f5f5f5f5f60a0888a031215610a29575f5ffd5b873567ffffffffffffffff811115610a3f575f5ffd5b610a4b8a828b01610818565b9098509650610a5e90506020890161085d565b9450604088013567ffffffffffffffff811115610a79575f5ffd5b610a858a828b01610878565b989b979a5095989597966060870135966080013595509350505050565b5f60208284031215610ab2575f5ffd5b5035919050565b81835281816020850137505f828201602090810191909152601f909101601f19169091010190565b8183526020830192505f815f5b84811015610b1d576001600160a01b03610b078361085d565b1686526020958601959190910190600101610aee565b5093949350505050565b608081525f610b3a60808301888a610ab9565b6001600160a01b03871660208401528281036040840152610b5c818688610ae1565b91505060018060a01b0383166060830152979650505050505050565b634e487b7160e01b5f52603260045260245ffd5b606081525f610b9f606083018688610ab9565b6001600160a01b03949094166020830152506040015292915050565b634e487b7160e01b5f52604160045260245ffd5b634e487b7160e01b5f52601160045260245ffd5b808201808211156104f4576104f4610bcf565b818103818111156104f4576104f4610bcf565b60c081525f610c1c60c083018a8c610ab9565b6001600160a01b03891660208401528281036040840152610c3e81888a610ae1565b6060840196909652505060808101929092526001600160a01b031660a09091015295945050505050565b60a081525f610c7b60a08301888a610ab9565b6001600160a01b0396909616602083015250604081019390935260608301919091526080909101529291505056fe60c060405234801561000f575f5ffd5b5060405161206e38038061206e83398101604081905261002e916103c5565b60017f9b779b17422d0df92223018b32b4d1fa46e071723d6817e2486d003becc55f005583516100925760405162461bcd60e51b815260206004820152600a602482015269456d707479206e616d6560b01b60448201526064015b60405180910390fd5b6001600160a01b0383166100d85760405162461bcd60e51b815260206004820152600d60248201526c24b73b30b634b2103a37b5b2b760991b6044820152606401610089565b60028251101561012a5760405162461bcd60e51b815260206004820152601760248201527f4e656564206174206c656173742032206d656d626572730000000000000000006044820152606401610089565b60148251111561016d5760405162461bcd60e51b815260206004820152600e60248201526d4d6178203230206d656d6265727360901b6044820152606401610089565b5f6101788582610531565b506001600160a01b03808416608052811660a0525f5b82518110156102d6575f8382815181106101aa576101aa6105ef565b602002602001015190505f6001600160a01b0316816001600160a01b0316036102155760405162461bcd60e51b815260206004820152601660248201527f496e76616c6964206d656d6265722061646472657373000000000000000000006044820152606401610089565b6001600160a01b0381165f9081526002602052604090205460ff16156102705760405162461bcd60e51b815260206004820152601060248201526f223ab83634b1b0ba329036b2b6b132b960811b6044820152606401610089565b6001805480820182557fb10e2d527612073b26eecdfd717e6a320cf44b4afac2b0732d9fcbe2b7fa0cf60180546001600160a01b039093166001600160a01b0319909316831790555f91825260026020526040909120805460ff1916821790550161018e565b5050505050610603565b634e487b7160e01b5f52604160045260245ffd5b604051601f8201601f191681016001600160401b038111828210171561031c5761031c6102e0565b604052919050565b80516001600160a01b038116811461033a575f5ffd5b919050565b5f82601f83011261034e575f5ffd5b81516001600160401b03811115610367576103676102e0565b8060051b610377602082016102f4565b91825260208185018101929081019086841115610392575f5ffd5b6020860192505b838310156103bb576103aa83610324565b825260209283019290910190610399565b9695505050505050565b5f5f5f5f608085870312156103d8575f5ffd5b84516001600160401b038111156103ed575f5ffd5b8501601f810187136103fd575f5ffd5b80516001600160401b03811115610416576104166102e0565b610429601f8201601f19166020016102f4565b81815288602083850101111561043d575f5ffd5b8160208401602083015e5f6020838301015280965050505061046160208601610324565b60408601519093506001600160401b0381111561047c575f5ffd5b6104888782880161033f565b92505061049760608601610324565b905092959194509250565b600181811c908216806104b657607f821691505b6020821081036104d457634e487b7160e01b5f52602260045260245ffd5b50919050565b601f82111561052c578282111561052c57805f5260205f20601f840160051c602085101561050557505f5b90810190601f840160051c035f5b81811015610528575f83820155600101610513565b5050505b505050565b81516001600160401b0381111561054a5761054a6102e0565b61055e8161055884546104a2565b846104da565b6020601f821160018114610590575f83156105795750848201515b5f19600385901b1c1916600184901b1784556105e8565b5f84815260208120601f198516915b828110156105bf578785015182556020948501946001909201910161059f565b50848210156105dc57868401515f19600387901b60f8161c191681555b505060018360011b0184555b5050505050565b634e487b7160e01b5f52603260045260245ffd5b60805160a051611a356106395f395f61032801525f818161022c015281816106f701528181610cd001526110680152611a355ff3fe608060405234801561000f575f5ffd5b5060043610610127575f3560e01c8063843592d3116100a9578063c62de7d81161006e578063c62de7d8146102e3578063d875d55714610310578063e4fbb60914610323578063f8b2cb4f1461034a578063fad6036b14610372575f5ffd5b8063843592d31461024e5780639eab525314610276578063a230c5241461028b578063a6fa8a3a146102bd578063c0a7540b146102d0575f5ffd5b80633ccfd60b116100ef5780633ccfd60b146101c757806352e7df5d146101cf5780635daf08ca146101d8578063735e5db61461020357806382bfefc814610227575f5ffd5b806302b629381461012b57806306fdde031461015d578063125ede9d1461017257806327e235e3146101875780633a2e55ec146101a6575b5f5ffd5b61014a610139366004611487565b60046020525f908152604090205481565b6040519081526020015b60405180910390f35b61016561038a565b60405161015491906114d5565b6101856101803660046114e7565b610415565b005b61014a610195366004611487565b60036020525f908152604090205481565b6101b96101b43660046114e7565b6105d8565b604051610154929190611541565b6101856106a2565b61014a60055481565b6101eb6101e63660046114e7565b610774565b6040516001600160a01b039091168152602001610154565b6102166102113660046114e7565b61079c565b6040516101549594939291906115ad565b6101eb7f000000000000000000000000000000000000000000000000000000000000000081565b61014a61025c366004611487565b6001600160a01b03165f9081526004602052604090205490565b61027e61087d565b6040516101549190611604565b6102ad610299366004611487565b60026020525f908152604090205460ff1681565b6040519015158152602001610154565b6101856102cb3660046114e7565b6108dd565b6101856102de3660046114e7565b610972565b6102ad6102f1366004611616565b600960209081525f928352604080842090915290825290205460ff1681565b61014a61031e366004611688565b610d7a565b6101eb7f000000000000000000000000000000000000000000000000000000000000000081565b61014a610358366004611487565b6001600160a01b03165f9081526003602052604090205490565b61037a611060565b604051610154949392919061175f565b5f805461039690611796565b80601f01602080910402602001604051908101604052809291908181526020018280546103c290611796565b801561040d5780601f106103e45761010080835404028352916020019161040d565b820191905f5260205f20905b8154815290600101906020018083116103f057829003601f168201915b505050505081565b61041d611128565b5f81815260066020526040902080546001600160a01b031661045257604051637ed071bf60e11b815260040160405180910390fd5b5f600382015460ff16600281111561046c5761046c611599565b1461048a576040516385b1494360e01b815260040160405180910390fd5b8054336001600160a01b03909116036104b65760405163a3cb6e7b60e01b815260040160405180910390fd5b5f82815260096020908152604080832033845290915290205460ff16156104f05760405163c2c62d6b60e01b815260040160405180910390fd5b5f82815260076020526040812090805b825481101561054f57336001600160a01b0316838281548110610525576105256117ce565b5f918252602090912001546001600160a01b031603610547576001915061054f565b600101610500565b508061056e5760405163b80120eb60e01b815260040160405180910390fd5b5f8481526009602090815260408083203384529091528120805460ff19166001179055600484018054916105a1836117f6565b9091555050604051339085907ff467284cc169b5fcf370cb14f661f31d045b9fdaf1053e6693141545b9b471b4905f90a350505050565b5f818152600760209081526040808320600883529281902083548251818502810185019093528083526060948594909391849183018282801561064257602002820191905f5260205f20905b81546001600160a01b03168152600190910190602001808311610624575b505050505091508080548060200260200160405190810160405280929190818152602001828054801561069257602002820191905f5260205f20905b81548152602001906001019080831161067e575b5050505050905091509150915091565b6106aa611157565b6106b2611128565b335f90815260046020526040812054908190036106e25760405163a7b900a360e01b815260040160405180910390fd5b335f81815260046020526040812055610726907f00000000000000000000000000000000000000000000000000000000000000006001600160a01b03169083611172565b60405181815233907f7084f5476618d8e60b11ef0d7d3f06914655adb8793e28ff7f018d4c76d505d59060200160405180910390a25061077260015f5160206119e05f395f51905f5255565b565b60018181548110610783575f80fd5b5f918252602090912001546001600160a01b0316905081565b5f818152600660205260408120805460018201546003830154600484015460028501805487966060968896879692956001600160a01b03909216949093909260ff16919083906107eb90611796565b80601f016020809104026020016040519081016040528092919081815260200182805461081790611796565b80156108625780601f1061083957610100808354040283529160200191610862565b820191905f5260205f20905b81548152906001019060200180831161084557829003601f168201915b50505050509250955095509550955095505091939590929450565b606060018054806020026020016040519081016040528092919081815260200182805480156108d357602002820191905f5260205f20905b81546001600160a01b031681526001909101906020018083116108b5575b5050505050905090565b6108e5611128565b806108ef816111ac565b5f82815260066020526040812090600382015460ff16600281111561091657610916611599565b14610934576040516385b1494360e01b815260040160405180910390fd5b60038101805460ff1916600217905560405183907f9e62696c18024b16cc84263d5bae54bdbcf0e9cb2f23d1536abd75ef70c7df22905f90a2505050565b61097a611157565b610982611128565b8061098c816111ac565b5f82815260066020526040812090600382015460ff1660028111156109b3576109b3611599565b146109d1576040516385b1494360e01b815260040160405180910390fd5b5f838152600760209081526040808320600890925282208354919290916001600160a01b031690805b8454811015610a8a575f858281548110610a1657610a166117ce565b5f918252602090912001546001600160a01b03908116915084168103610a3f5760019250610a81565b5f8981526009602090815260408083206001600160a01b038516845290915290205460ff16610a81576040516301b9a73d60e21b815260040160405180910390fd5b506001016109fa565b5083545f90610a9990836111e2565b90508086600401541015610ac0576040516301b9a73d60e21b815260040160405180910390fd5b60038601805460ff191660011790555f805b8654811015610bd1575f878281548110610aee57610aee6117ce565b5f91825260208220015488546001600160a01b039091169250889084908110610b1957610b196117ce565b905f5260205f2001549050866001600160a01b0316826001600160a01b031614610bc7576001600160a01b0382165f908152600360205260408120805491839190610b64838561180e565b90915550506001600160a01b0383165f81815260036020908152604091829020548251858152918201527f3bb4f7f8744b5caf9100b5462511bed824037408fdd7295c5f58cebe98b7b9bb910160405180910390a2610bc38286611834565b9450505b5050600101610ad2565b508015610c56576001600160a01b0384165f908152600360205260408120805491839190610bff8385611847565b90915550506001600160a01b0385165f81815260036020908152604091829020548251858152918201527f3bb4f7f8744b5caf9100b5462511bed824037408fdd7295c5f58cebe98b7b9bb910160405180910390a2505b5f5b8654811015610d02575f878281548110610c7457610c746117ce565b5f91825260208220015488546001600160a01b039091169250889084908110610c9f57610c9f6117ce565b905f5260205f2001549050866001600160a01b0316826001600160a01b031614610cf857610cf86001600160a01b037f000000000000000000000000000000000000000000000000000000000000000016833084611211565b5050600101610c58565b506001600160a01b0384165f9081526004602052604081208054839290610d2a908490611834565b909155505060405189907f0f645877fe838126f91b4e7f0c2002e96576b70d9d3483c64ad47a4c586fbf2b905f90a25050505050505050610d7760015f5160206119e05f395f51905f5255565b50565b5f610d83611128565b81610dc65760405162461bcd60e51b815260206004820152600e60248201526d115b5c1d1e4812541194c810d25160921b60448201526064015b60405180910390fd5b610dd0868561124d565b610ddb888686611291565b5f5b86811015610e505760025f898984818110610dfa57610dfa6117ce565b9050602002016020810190610e0f9190611487565b6001600160a01b0316815260208101919091526040015f205460ff16610e485760405163b80120eb60e01b815260040160405180910390fd5b600101610ddd565b5060058054905f610e60836117f6565b9190505590506040518060c00160405280336001600160a01b0316815260200189815260200184848080601f0160208091040260200160405190810160405280939291908181526020018383808284375f92018290525093855250506020909201915081525f6020808301829052426040938401528482526006815290829020835181546001600160a01b0319166001600160a01b03909116178155908301516001820155908201516002820190610f1890826118d8565b50606082015160038201805460ff19166001836002811115610f3c57610f3c611599565b02179055506080820151600482015560a0909101516005909101555f5b8681101561100e575f828152600760205260409020888883818110610f8057610f806117ce565b9050602002016020810190610f959190611487565b81546001810183555f928352602080842090910180546001600160a01b0319166001600160a01b0393909316929092179091558382526008905260409020868683818110610fe557610fe56117ce565b8354600180820186555f9586526020958690209290950293909301359201919091555001610f59565b50336001600160a01b0316817f80d44b6da15b95e849105ee93210a3f0cb3de6c31c907007cc55361e3125182b8a868660405161104d93929190611997565b60405180910390a3979650505050505050565b60605f5f5f5f7f000000000000000000000000000000000000000000000000000000000000000060018054905060055483805461109c90611796565b80601f01602080910402602001604051908101604052809291908181526020018280546110c890611796565b80156111135780601f106110ea57610100808354040283529160200191611113565b820191905f5260205f20905b8154815290600101906020018083116110f657829003601f168201915b50505050509350935093509350935090919293565b335f9081526002602052604090205460ff1661077257604051632fa188c360e11b815260040160405180910390fd5b61115f61136e565b60025f5160206119e05f395f51905f5255565b61117f838383600161139d565b6111a757604051635274afe760e01b81526001600160a01b0384166004820152602401610dbd565b505050565b5f818152600660205260409020546001600160a01b03163314610d775760405163a3cb6e7b60e01b815260040160405180910390fd5b5f8115611208575f83116111f6575f611201565b6112016001846119cc565b905061120b565b50815b92915050565b61121f8484848460016113ff565b61124757604051635274afe760e01b81526001600160a01b0385166004820152602401610dbd565b50505050565b815f0361126d576040516308b6a47360e41b815260040160405180910390fd5b80821461128d576040516328658a1160e11b815260040160405180910390fd5b5050565b825f036112b157604051631f2a200560e01b815260040160405180910390fd5b5f8190036112d2576040516308b6a47360e41b815260040160405180910390fd5b5f805b82811015611343578383828181106112ef576112ef6117ce565b905060200201355f036113155760405163fc6f967760e01b815260040160405180910390fd5b838382818110611327576113276117ce565b90506020020135826113399190611834565b91506001016112d5565b50838114611247576040516314fe468960e11b81526004810185905260248101829052604401610dbd565b5f5160206119e05f395f51905f525460020361077257604051633ee5aeb560e01b815260040160405180910390fd5b60405163a9059cbb60e01b5f8181526001600160a01b038616600452602485905291602083604481808b5af1925060015f511483166113f35783831516156113e7573d5f823e3d81fd5b5f873b113d1516831692505b60405250949350505050565b6040516323b872dd60e01b5f8181526001600160a01b038781166004528616602452604485905291602083606481808c5af1925060015f5114831661145b57838315161561144f573d5f823e3d81fd5b5f883b113d1516831692505b604052505f60605295945050505050565b80356001600160a01b0381168114611482575f5ffd5b919050565b5f60208284031215611497575f5ffd5b6114a08261146c565b9392505050565b5f81518084528060208401602086015e5f602082860101526020601f19601f83011685010191505092915050565b602081525f6114a060208301846114a7565b5f602082840312156114f7575f5ffd5b5035919050565b5f8151808452602084019350602083015f5b828110156115375781516001600160a01b0316865260209586019590910190600101611510565b5093949350505050565b604081525f61155360408301856114fe565b82810360208401528084518083526020830191506020860192505f5b8181101561158d57835183526020938401939092019160010161156f565b50909695505050505050565b634e487b7160e01b5f52602160045260245ffd5b60018060a01b038616815284602082015260a060408201525f6115d360a08301866114a7565b9050600384106115f157634e487b7160e01b5f52602160045260245ffd5b6060820193909352608001529392505050565b602081525f6114a060208301846114fe565b5f5f60408385031215611627575f5ffd5b823591506116376020840161146c565b90509250929050565b5f5f83601f840112611650575f5ffd5b50813567ffffffffffffffff811115611667575f5ffd5b6020830191508360208260051b8501011115611681575f5ffd5b9250929050565b5f5f5f5f5f5f5f6080888a03121561169e575f5ffd5b87359650602088013567ffffffffffffffff8111156116bb575f5ffd5b6116c78a828b01611640565b909750955050604088013567ffffffffffffffff8111156116e6575f5ffd5b6116f28a828b01611640565b909550935050606088013567ffffffffffffffff811115611711575f5ffd5b8801601f81018a13611721575f5ffd5b803567ffffffffffffffff811115611737575f5ffd5b8a6020828401011115611748575f5ffd5b602082019350809250505092959891949750929550565b608081525f61177160808301876114a7565b6001600160a01b03959095166020830152506040810192909252606090910152919050565b600181811c908216806117aa57607f821691505b6020821081036117c857634e487b7160e01b5f52602260045260245ffd5b50919050565b634e487b7160e01b5f52603260045260245ffd5b634e487b7160e01b5f52601160045260245ffd5b5f60018201611807576118076117e2565b5060010190565b8181035f83128015838313168383128216171561182d5761182d6117e2565b5092915050565b8082018082111561120b5761120b6117e2565b8082018281125f831280158216821582161715611866576118666117e2565b505092915050565b634e487b7160e01b5f52604160045260245ffd5b601f8211156111a757828211156111a757805f5260205f20601f840160051c60208510156118ad57505f5b90810190601f840160051c035f5b818110156118d0575f838201556001016118bb565b505050505050565b815167ffffffffffffffff8111156118f2576118f261186e565b611906816119008454611796565b84611882565b6020601f821160018114611938575f83156119215750848201515b5f19600385901b1c1916600184901b178455611990565b5f84815260208120601f198516915b828110156119675787850151825560209485019460019092019101611947565b508482101561198457868401515f19600387901b60f8161c191681555b505060018360011b0184555b5050505050565b83815260406020820152816040820152818360608301375f818301606090810191909152601f909201601f1916010192915050565b8181038181111561120b5761120b6117e256fe9b779b17422d0df92223018b32b4d1fa46e071723d6817e2486d003becc55f00a2646970667358221220fd49bc5132066cd13713d61bcff3bae3cb1c1b82f374246d6d2c12acddec266564736f6c63430008210033610120604052348015610010575f5ffd5b506040516128d53803806128d583398101604081905261002f91610465565b60017f9b779b17422d0df92223018b32b4d1fa46e071723d6817e2486d003becc55f005585516100935760405162461bcd60e51b815260206004820152600a602482015269456d707479206e616d6560b01b60448201526064015b60405180910390fd5b6001600160a01b0385166100d95760405162461bcd60e51b815260206004820152600d60248201526c24b73b30b634b2103a37b5b2b760991b604482015260640161008a565b60028451101561012b5760405162461bcd60e51b815260206004820152601760248201527f4e656564206174206c656173742032206d656d62657273000000000000000000604482015260640161008a565b60148451111561016e5760405162461bcd60e51b815260206004820152600e60248201526d4d6178203230206d656d6265727360901b604482015260640161008a565b5f83116101ac5760405162461bcd60e51b815260206004820152600c60248201526b16995c9bc819195c1bdcda5d60a21b604482015260640161008a565b4282116101ee5760405162461bcd60e51b815260206004820152601060248201526f111958591b1a5b99481a5b881c185cdd60821b604482015260640161008a565b5f6101f987826105e4565b506001600160a01b0385811660805260c084905260e0839052811660a0528351610100526001805460ff191690555f5b8451811015610374575f858281518110610245576102456106a2565b602002602001015190505f6001600160a01b0316816001600160a01b0316036102b05760405162461bcd60e51b815260206004820152601660248201527f496e76616c6964206d656d626572206164647265737300000000000000000000604482015260640161008a565b6001600160a01b0381165f9081526003602052604090205460ff161561030b5760405162461bcd60e51b815260206004820152601060248201526f223ab83634b1b0ba329036b2b6b132b960811b604482015260640161008a565b6002805460018181019092557f405787fa12a823e0f2b7631cc41b3ba8828b3321ca811111fa75cd3aa3bb5ace0180546001600160a01b039093166001600160a01b0319909316831790555f91825260036020526040909120805460ff19168217905501610229565b505050505050506106b6565b634e487b7160e01b5f52604160045260245ffd5b604051601f8201601f191681016001600160401b03811182821017156103bc576103bc610380565b604052919050565b80516001600160a01b03811681146103da575f5ffd5b919050565b5f82601f8301126103ee575f5ffd5b81516001600160401b0381111561040757610407610380565b8060051b61041760208201610394565b91825260208185018101929081019086841115610432575f5ffd5b6020860192505b8383101561045b5761044a836103c4565b825260209283019290910190610439565b9695505050505050565b5f5f5f5f5f5f60c0878903121561047a575f5ffd5b86516001600160401b0381111561048f575f5ffd5b8701601f8101891361049f575f5ffd5b80516001600160401b038111156104b8576104b8610380565b6104cb601f8201601f1916602001610394565b8181528a60208385010111156104df575f5ffd5b8160208401602083015e5f60208383010152809850505050610503602088016103c4565b60408801519095506001600160401b0381111561051e575f5ffd5b61052a89828a016103df565b606089015160808a015191965094509250610549905060a088016103c4565b90509295509295509295565b600181811c9082168061056957607f821691505b60208210810361058757634e487b7160e01b5f52602260045260245ffd5b50919050565b601f8211156105df57828211156105df57805f5260205f20601f840160051c60208510156105b857505f5b90810190601f840160051c035f5b818110156105db575f838201556001016105c6565b5050505b505050565b81516001600160401b038111156105fd576105fd610380565b6106118161060b8454610555565b8461058d565b6020601f821160018114610643575f831561062c5750848201515b5f19600385901b1c1916600184901b17845561069b565b5f84815260208120601f198516915b828110156106725787850151825560209485019460019092019101610652565b508482101561068f57868401515f19600387901b60f8161c191681555b505060018360011b0184555b5050505050565b634e487b7160e01b5f52603260045260245ffd5b60805160a05160c05160e0516101005161218e6107475f395f61045e01525f818161030601528181610a750152610d1301525f818161039e01528181610e0d01528181610ec901528181610f2c0152610f6501525f61043701525f818161032d015281816109d801528181610d6901528181610de901528181610e520152818161147a01526114e4015261218e5ff3fe608060405234801561000f575f5ffd5b50600436106101d1575f3560e01c8063a230c524116100fe578063d179e95c1161009e578063efc5eb8f1161006e578063efc5eb8f14610480578063f0cf1e9c14610488578063f2c16e6f1461049a578063fad6036b146104bc575f5ffd5b8063d179e95c14610417578063d875d5571461041f578063e4fbb60914610432578063ea0e35b114610459575f5ffd5b8063c19d93fb116100d9578063c19d93fb146103c0578063c6279ab1146103da578063c62de7d8146103e2578063d0e30db01461040f575f5ffd5b8063a230c52414610364578063a6fa8a3a14610386578063be64b76b14610399575f5ffd5b80633ccfd60b11610174578063735e5db611610144578063735e5db6146102dd57806376d871eb1461030157806382bfefc8146103285780639eab52531461034f575f5ffd5b80633ccfd60b1461029957806343bf9936146102a157806352e7df5d146102a95780635daf08ca146102b2575f5ffd5b806327e235e3116101af57806327e235e31461023a5780632dfdf0b5146102675780633a2e55ec146102705780633c459b1214610291575f5ffd5b806306fdde03146101d5578063125ede9d146101f3578063195fc6ea14610208575b5f5ffd5b6101dd6104d5565b6040516101ea9190611c1f565b60405180910390f35b610206610201366004611c38565b610560565b005b61022a610216366004611c6a565b60056020525f908152604090205460ff1681565b60405190151581526020016101ea565b610259610248366004611c6a565b60076020525f908152604090205481565b6040519081526020016101ea565b61025960065481565b61028361027e366004611c38565b61082c565b6040516101ea929190611cc6565b6102066108f6565b610206610940565b610206610a69565b61025960085481565b6102c56102c0366004611c38565b610ab3565b6040516001600160a01b0390911681526020016101ea565b6102f06102eb366004611c38565b610adb565b6040516101ea959493929190611d32565b6102597f000000000000000000000000000000000000000000000000000000000000000081565b6102c57f000000000000000000000000000000000000000000000000000000000000000081565b610357610bbc565b6040516101ea9190611d7d565b61022a610372366004611c6a565b60036020525f908152604090205460ff1681565b610206610394366004611c38565b610c1c565b6102597f000000000000000000000000000000000000000000000000000000000000000081565b6001546103cd9060ff1681565b6040516101ea9190611da3565b610206610cb1565b61022a6103f0366004611db1565b600c60209081525f928352604080842090915290825290205460ff1681565b610206610ccf565b610206610ffa565b61025961042d366004611e23565b6110b3565b6102c57f000000000000000000000000000000000000000000000000000000000000000081565b6102597f000000000000000000000000000000000000000000000000000000000000000081565b6102066113a0565b60015461022a90610100900460ff1681565b61022a6104a8366004611c6a565b60046020525f908152604090205460ff1681565b6104c46114db565b6040516101ea959493929190611efa565b5f80546104e190611f2a565b80601f016020809104026020016040519081016040528092919081815260200182805461050d90611f2a565b80156105585780601f1061052f57610100808354040283529160200191610558565b820191905f5260205f20905b81548152906001019060200180831161053b57829003601f168201915b505050505081565b6105686115b6565b6001610573816115e5565b5f82815260096020526040902080546001600160a01b03166105a857604051635ff9ced160e11b815260040160405180910390fd5b5f600382015460ff1660028111156105c2576105c2611d1e565b146105e057604051635e0814bf60e01b815260040160405180910390fd5b8054336001600160a01b039091160361060c5760405163202cd44b60e21b815260040160405180910390fd5b5f838152600c6020908152604080832033845290915290205460ff1615610646576040516380d2abd760e01b815260040160405180910390fd5b5f838152600a60209081526040808320600b9092528220909180805b84548110156106ce57336001600160a01b031685828154811061068757610687611f62565b5f918252602090912001546001600160a01b0316036106c6578381815481106106b2576106b2611f62565b905f5260205f2001549250600191506106ce565b600101610662565b50806106ed57604051631af6e85f60e31b815260040160405180910390fd5b335f9081526007602052604090205482111561074057335f90815260076020526040908190205490516304a79bb560e21b8152610737918491600401918252602082015260400190565b60405180910390fd5b5f878152600c602090815260408083203384529091528120805460ff191660011790556004860180549161077383611f8a565b9091555050604051339088907ff467284cc169b5fcf370cb14f661f31d045b9fdaf1053e6693141545b9b471b4905f90a35f805b85548110156107fc57865486546001600160a01b03909116908790839081106107d2576107d2611f62565b5f918252602090912001546001600160a01b0316036107f457600191506107fc565b6001016107a7565b5084545f9061080b9083611637565b9050808760040154106108215761082189611666565b505050505050505050565b5f818152600a60209081526040808320600b83529281902083548251818502810185019093528083526060948594909391849183018282801561089657602002820191905f5260205f20905b81546001600160a01b03168152600190910190602001808311610878575b50505050509150808054806020026020016040519081016040528092919081815260200182805480156108e657602002820191905f5260205f20905b8154815260200190600101908083116108d2575b5050505050905091509150915091565b6108fe6117b4565b5f610908816115e5565b6001805460ff191660041790556040517f3c2284e0545437ed2a26c25c1787c96e93e633bd3758a61c70344e1237f570f9905f90a150565b6109486117e3565b6109506115b6565b600360015460ff16600481111561096957610969611d1e565b1461099357600154604051632221ce9b60e21b81526107379160039160ff90911690600401611fa2565b335f90815260076020526040812054908190036109c357604051634239397760e11b815260040160405180910390fd5b335f81815260076020526040812055610a07907f00000000000000000000000000000000000000000000000000000000000000006001600160a01b03169083611811565b60405181815233907f7084f5476618d8e60b11ef0d7d3f06914655adb8793e28ff7f018d4c76d505d5906020015b60405180910390a250610a6760017f9b779b17422d0df92223018b32b4d1fa46e071723d6817e2486d003becc55f0055565b565b5f610a73816115e5565b7f00000000000000000000000000000000000000000000000000000000000000004211610908576040516340875a8f60e11b815260040160405180910390fd5b60028181548110610ac2575f80fd5b5f918252602090912001546001600160a01b0316905081565b5f818152600960205260408120805460018201546003830154600484015460028501805487966060968896879692956001600160a01b03909216949093909260ff1691908390610b2a90611f2a565b80601f0160208091040260200160405190810160405280929190818152602001828054610b5690611f2a565b8015610ba15780601f10610b7857610100808354040283529160200191610ba1565b820191905f5260205f20905b815481529060010190602001808311610b8457829003601f168201915b50505050509250955095509550955095505091939590929450565b60606002805480602002602001604051908101604052809291908181526020018280548015610c1257602002820191905f5260205f20905b81546001600160a01b03168152600190910190602001808311610bf4575b5050505050905090565b610c246115b6565b80610c2e81611846565b5f82815260096020526040812090600382015460ff166002811115610c5557610c55611d1e565b14610c7357604051635e0814bf60e01b815260040160405180910390fd5b60038101805460ff1916600217905560405183907f9e62696c18024b16cc84263d5bae54bdbcf0e9cb2f23d1536abd75ef70c7df22905f90a2505050565b610cb96115b6565b6002610cc4816115e5565b610ccc61187c565b50565b610cd76117b4565b5f610ce1816115e5565b335f9081526004602052604090205460ff1615610d1157604051631835ad2360e11b815260040160405180910390fd5b7f0000000000000000000000000000000000000000000000000000000000000000421115610d5257604051630a6fbb9f60e31b815260040160405180910390fd5b6040516370a0823160e01b81523060048201525f907f00000000000000000000000000000000000000000000000000000000000000006001600160a01b0316906370a0823190602401602060405180830381865afa158015610db6573d5f5f3e3d5ffd5b505050506040513d601f19601f82011682018060405250810190610dda9190611fbd565b9050610e316001600160a01b037f00000000000000000000000000000000000000000000000000000000000000001633307f00000000000000000000000000000000000000000000000000000000000000006118f3565b6040516370a0823160e01b81523060048201525f9082906001600160a01b037f000000000000000000000000000000000000000000000000000000000000000016906370a0823190602401602060405180830381865afa158015610e97573d5f5f3e3d5ffd5b505050506040513d601f19601f82011682018060405250810190610ebb9190611fbd565b610ec59190611fd4565b90507f00000000000000000000000000000000000000000000000000000000000000008114610f07576040516360c246cd60e11b815260040160405180910390fd5b335f908152600460209081526040808320805460ff19166001179055600790915281207f000000000000000000000000000000000000000000000000000000000000000090556006805491610f5b83611f8a565b90915550506040517f0000000000000000000000000000000000000000000000000000000000000000815233907f9936746a4565f9766fa768f88f56a7487c78780ac179562773d1c75c5269537e9060200160405180910390a260025460065403610ff5576001805460ff1916811790556040517fa28cea82c5bd1dc23e716681a64416cf6bb7a8605641f00e617c874021609022905f90a15b505050565b6110026115b6565b600161100d816115e5565b600154610100900460ff161561102557610ccc61187c565b6001805461ff001916610100178155335f81815260056020526040808220805460ff19908116861790915584546002911617909355915190917ff5ef014dc31426fe7ea9351e14bef3f9da9a738717a55f02f911698154e4b0bd91a260405133907f86161669e1ce0d05aad2595269f06ee222efbaa45aa0e8c67535b031bf353b61905f90a2610ccc61192f565b5f6110bc6115b6565b60016110c7816115e5565b826111055760405162461bcd60e51b815260206004820152600e60248201526d115b5c1d1e4812541194c810d25160921b6044820152606401610737565b61110f87866119bf565b61111a898787611a03565b5f5b8781101561118f5760045f8a8a8481811061113957611139611f62565b905060200201602081019061114e9190611c6a565b6001600160a01b0316815260208101919091526040015f205460ff1661118757604051631af6e85f60e31b815260040160405180910390fd5b60010161111c565b5060088054905f61119f83611f8a565b9190505591506040518060c00160405280336001600160a01b031681526020018a815260200185858080601f0160208091040260200160405190810160405280939291908181526020018383808284375f92018290525093855250506020909201915081525f6020808301829052426040938401528582526009815290829020835181546001600160a01b0319166001600160a01b039091161781559083015160018201559082015160028201906112579082612051565b50606082015160038201805460ff1916600183600281111561127b5761127b611d1e565b02179055506080820151600482015560a0909101516005909101555f5b8781101561134d575f838152600a602052604090208989838181106112bf576112bf611f62565b90506020020160208101906112d49190611c6a565b81546001810183555f928352602080842090910180546001600160a01b0319166001600160a01b039390931692909217909155848252600b90526040902087878381811061132457611324611f62565b8354600180820186555f9586526020958690209290950293909301359201919091555001611298565b50336001600160a01b0316827f80d44b6da15b95e849105ee93210a3f0cb3de6c31c907007cc55361e3125182b8b878760405161138c93929190612110565b60405180910390a350979650505050505050565b6113a86117e3565b6113b06117b4565b600460015460ff1660048111156113c9576113c9611d1e565b146113f257600154604051632221ce9b60e21b81526107379160049160ff909116908201611fa2565b335f9081526004602052604090205460ff16611421576040516324a1432960e01b815260040160405180910390fd5b335f908152600760205260408120549081900361145157604051634239397760e11b815260040160405180910390fd5b335f81815260076020908152604080832083905560049091529020805460ff191690556114a9907f00000000000000000000000000000000000000000000000000000000000000006001600160a01b03169083611811565b60405181815233907f698270f63d8b673ed55a5ca00d14001bd808b390dbe11d5b1b16624863f71f7790602001610a35565b60605f5f5f5f5f7f000000000000000000000000000000000000000000000000000000000000000060015f9054906101000a900460ff1660028054905060065484805461152790611f2a565b80601f016020809104026020016040519081016040528092919081815260200182805461155390611f2a565b801561159e5780601f106115755761010080835404028352916020019161159e565b820191905f5260205f20905b81548152906001019060200180831161158157829003601f168201915b50505050509450945094509450945094509091929394565b335f9081526004602052604090205460ff16610a67576040516324a1432960e01b815260040160405180910390fd5b8060048111156115f7576115f7611d1e565b60015460ff16600481111561160e5761160e611d1e565b14610ccc57600154604051632221ce9b60e21b815261073791839160ff90911690600401611fa2565b5f811561165d575f831161164b575f611656565b611656600184611fd4565b9050611660565b50815b92915050565b5f818152600960209081526040808320600a8352818420600b9093529083208154919390916001600160a01b031690805b8454811015611746575f8582815481106116b3576116b3611f62565b5f91825260208220015486546001600160a01b0390911692508690849081106116de576116de611f62565b905f5260205f2001549050846001600160a01b0316826001600160a01b03161461173c576001600160a01b0382165f9081526007602052604081208054839290611729908490611fd4565b9091555061173990508185612145565b93505b5050600101611697565b506001600160a01b0382165f908152600760205260408120805483929061176e908490612145565b909155505060038501805460ff1916600117905560405186907f0f645877fe838126f91b4e7f0c2002e96576b70d9d3483c64ad47a4c586fbf2b905f90a2505050505050565b335f9081526003602052604090205460ff16610a6757604051632077a43760e01b815260040160405180910390fd5b6117eb611ae0565b60027f9b779b17422d0df92223018b32b4d1fa46e071723d6817e2486d003becc55f0055565b61181e8383836001611b22565b610ff557604051635274afe760e01b81526001600160a01b0384166004820152602401610737565b5f818152600960205260409020546001600160a01b03163314610ccc5760405163202cd44b60e21b815260040160405180910390fd5b335f9081526005602052604090205460ff16156118ac576040516301b70b7960e71b815260040160405180910390fd5b335f81815260056020526040808220805460ff19166001179055517f86161669e1ce0d05aad2595269f06ee222efbaa45aa0e8c67535b031bf353b619190a2610a6761192f565b611901848484846001611b84565b61192957604051635274afe760e01b81526001600160a01b0385166004820152602401610737565b50505050565b5f5b6002548110156119875760055f6002838154811061195157611951611f62565b5f9182526020808320909101546001600160a01b0316835282019290925260400190205460ff1661197f5750565b600101611931565b506001805460ff191660031790556040517faf2077a51188e4d9cdccf33ab24401a400c4620705c401eb8939e2ce8e41d949905f90a1565b815f036119df576040516308b6a47360e41b815260040160405180910390fd5b8082146119ff576040516328658a1160e11b815260040160405180910390fd5b5050565b825f03611a2357604051631f2a200560e01b815260040160405180910390fd5b5f819003611a44576040516308b6a47360e41b815260040160405180910390fd5b5f805b82811015611ab557838382818110611a6157611a61611f62565b905060200201355f03611a875760405163fc6f967760e01b815260040160405180910390fd5b838382818110611a9957611a99611f62565b9050602002013582611aab9190612145565b9150600101611a47565b50838114611929576040516314fe468960e11b81526004810185905260248101829052604401610737565b7f9b779b17422d0df92223018b32b4d1fa46e071723d6817e2486d003becc55f0054600203610a6757604051633ee5aeb560e01b815260040160405180910390fd5b60405163a9059cbb60e01b5f8181526001600160a01b038616600452602485905291602083604481808b5af1925060015f51148316611b78578383151615611b6c573d5f823e3d81fd5b5f873b113d1516831692505b60405250949350505050565b6040516323b872dd60e01b5f8181526001600160a01b038781166004528616602452604485905291602083606481808c5af1925060015f51148316611be0578383151615611bd4573d5f823e3d81fd5b5f883b113d1516831692505b604052505f60605295945050505050565b5f81518084528060208401602086015e5f602082860101526020601f19601f83011685010191505092915050565b602081525f611c316020830184611bf1565b9392505050565b5f60208284031215611c48575f5ffd5b5035919050565b80356001600160a01b0381168114611c65575f5ffd5b919050565b5f60208284031215611c7a575f5ffd5b611c3182611c4f565b5f8151808452602084019350602083015f5b82811015611cbc5781516001600160a01b0316865260209586019590910190600101611c95565b5093949350505050565b604081525f611cd86040830185611c83565b82810360208401528084518083526020830191506020860192505f5b81811015611d12578351835260209384019390920191600101611cf4565b50909695505050505050565b634e487b7160e01b5f52602160045260245ffd5b60018060a01b038616815284602082015260a060408201525f611d5860a0830186611bf1565b905060038410611d6a57611d6a611d1e565b6060820193909352608001529392505050565b602081525f611c316020830184611c83565b60058110611d9f57611d9f611d1e565b9052565b602081016116608284611d8f565b5f5f60408385031215611dc2575f5ffd5b82359150611dd260208401611c4f565b90509250929050565b5f5f83601f840112611deb575f5ffd5b50813567ffffffffffffffff811115611e02575f5ffd5b6020830191508360208260051b8501011115611e1c575f5ffd5b9250929050565b5f5f5f5f5f5f5f6080888a031215611e39575f5ffd5b87359650602088013567ffffffffffffffff811115611e56575f5ffd5b611e628a828b01611ddb565b909750955050604088013567ffffffffffffffff811115611e81575f5ffd5b611e8d8a828b01611ddb565b909550935050606088013567ffffffffffffffff811115611eac575f5ffd5b8801601f81018a13611ebc575f5ffd5b803567ffffffffffffffff811115611ed2575f5ffd5b8a6020828401011115611ee3575f5ffd5b602082019350809250505092959891949750929550565b60a081525f611f0c60a0830188611bf1565b6001600160a01b03871660208401529050611d6a6040830186611d8f565b600181811c90821680611f3e57607f821691505b602082108103611f5c57634e487b7160e01b5f52602260045260245ffd5b50919050565b634e487b7160e01b5f52603260045260245ffd5b634e487b7160e01b5f52601160045260245ffd5b5f60018201611f9b57611f9b611f76565b5060010190565b60408101611fb08285611d8f565b611c316020830184611d8f565b5f60208284031215611fcd575f5ffd5b5051919050565b8181038181111561166057611660611f76565b634e487b7160e01b5f52604160045260245ffd5b601f821115610ff55782821115610ff557805f5260205f20601f840160051c602085101561202657505f5b90810190601f840160051c035f5b81811015612049575f83820155600101612034565b505050505050565b815167ffffffffffffffff81111561206b5761206b611fe7565b61207f816120798454611f2a565b84611ffb565b6020601f8211600181146120b1575f831561209a5750848201515b5f19600385901b1c1916600184901b178455612109565b5f84815260208120601f198516915b828110156120e057878501518255602094850194600190920191016120c0565b50848210156120fd57868401515f19600387901b60f8161c191681555b505060018360011b0184555b5050505050565b83815260406020820152816040820152818360608301375f818301606090810191909152601f909201601f1916010192915050565b8082018082111561166057611660611f7656fea26469706673582212201364245df6e17da7946d4ced2d487475c9ce37d992ed63c6960b0442199f6ff264736f6c63430008210033a26469706673582212209d5f218987bd7df104112cd5b93a395ea270814a9339820d423a0af4288268b064736f6c63430008210033","linkReferences":{}},"methodIdentifiers":{"allGroups(uint256)":"fd16c1d3","createDirectGroup(string,address,address[])":"05d54fee","createEscrowGroup(string,address,address[],uint256,uint256)":"af5bda67","getAllGroups()":"21cd3cae","getGroupCount()":"06545a93","getGroupMode(address)":"761b8f34","getGroupsByUser(address)":"91118c74","getGroupsPaginated(uint256,uint256)":"318c47fd","groupModes(address)":"112259d6","userGroups(address,uint256)":"60a9e097"},"id":37}