{"abi":[{"type":"constructor","inputs":[{"name":"_name","type":"string","internalType":"string"},{"name":"_token","type":"address","internalType":"address"},{"name":"_members","type":"address[]","internalType":"address[]"},{"name":"_creator","type":"address","internalType":"address"}],"stateMutability":"nonpayable"},{"type":"function","name":"CREATOR","inputs":[],"outputs":[{"name":"","type":"address","internalType":"address"}],"stateMutability":"view"},{"type":"function","name":"TOKEN","inputs":[],"outputs":[{"name":"","type":"address","internalType":"contract IERC20"}],"stateMutability":"view"},{"type":"function","name":"acceptExpense","inputs":[{"name":"expenseId","type":"uint256","internalType":"uint256"}],"outputs":[],"stateMutability":"nonpayable"},{"type":"function","name":"balances","inputs":[{"name":"","type":"address","internalType":"address"}],"outputs":[{"name":"","type":"int256","internalType":"int256"}],"stateMutability":"view"},{"type":"function","name":"cancelExpense","inputs":[{"name":"expenseId","type":"uint256","internalType":"uint256"}],"outputs":[],"stateMutability":"nonpayable"},{"type":"function","name":"createExpense","inputs":[{"name":"amount","type":"uint256","internalType":"uint256"},{"name":"participants","type":"address[]","internalType":"address[]"},{"name":"shares","type":"uint256[]","internalType":"uint256[]"},{"name":"ipfsCid","type":"string","internalType":"string"}],"outputs":[{"name":"expenseId","type":"uint256","internalType":"uint256"}],"stateMutability":"nonpayable"},{"type":"function","name":"expenseCount","inputs":[],"outputs":[{"name":"","type":"uint256","internalType":"uint256"}],"stateMutability":"view"},{"type":"function","name":"getBalance","inputs":[{"name":"member","type":"address","internalType":"address"}],"outputs":[{"name":"","type":"int256","internalType":"int256"}],"stateMutability":"view"},{"type":"function","name":"getExpense","inputs":[{"name":"expenseId","type":"uint256","internalType":"uint256"}],"outputs":[{"name":"payer","type":"address","internalType":"address"},{"name":"amount","type":"uint256","internalType":"uint256"},{"name":"ipfsCid","type":"string","internalType":"string"},{"name":"expenseState","type":"uint8","internalType":"enum GroupDirect.ExpenseState"},{"name":"acceptedCount","type":"uint256","internalType":"uint256"}],"stateMutability":"view"},{"type":"function","name":"getExpenseParticipants","inputs":[{"name":"expenseId","type":"uint256","internalType":"uint256"}],"outputs":[{"name":"participants","type":"address[]","internalType":"address[]"},{"name":"shares","type":"uint256[]","internalType":"uint256[]"}],"stateMutability":"view"},{"type":"function","name":"getGroupInfo","inputs":[],"outputs":[{"name":"_name","type":"string","internalType":"string"},{"name":"_token","type":"address","internalType":"address"},{"name":"_memberCount","type":"uint256","internalType":"uint256"},{"name":"_expenseCount","type":"uint256","internalType":"uint256"}],"stateMutability":"view"},{"type":"function","name":"getMembers","inputs":[],"outputs":[{"name":"","type":"address[]","internalType":"address[]"}],"stateMutability":"view"},{"type":"function","name":"getWithdrawableBalance","inputs":[{"name":"member","type":"address","internalType":"address"}],"outputs":[{"name":"","type":"uint256","internalType":"uint256"}],"stateMutability":"view"},{"type":"function","name":"hasAccepted","inputs":[{"name":"","type":"uint256","internalType":"uint256"},{"name":"","type":"address","internalType":"address"}],"outputs":[{"name":"","type":"bool","internalType":"bool"}],"stateMutability":"view"},{"type":"function","name":"isMember","inputs":[{"name":"","type":"address","internalType":"address"}],"outputs":[{"name":"","type":"bool","internalType":"bool"}],"stateMutability":"view"},{"type":"function","name":"members","inputs":[{"name":"","type":"uint256","internalType":"uint256"}],"outputs":[{"name":"","type":"address","internalType":"address"}],"stateMutability":"view"},{"type":"function","name":"name","inputs":[],"outputs":[{"name":"","type":"string","internalType":"string"}],"stateMutability":"view"},{"type":"function","name":"settleExpense","inputs":[{"name":"expenseId","type":"uint256","internalType":"uint256"}],"outputs":[],"stateMutability":"nonpayable"},{"type":"function","name":"withdraw","inputs":[],"outputs":[],"stateMutability":"nonpayable"},{"type":"function","name":"withdrawableBalance","inputs":[{"name":"","type":"address","internalType":"address"}],"outputs":[{"name":"","type":"uint256","internalType":"uint256"}],"stateMutability":"view"},{"type":"event","name":"BalanceUpdated","inputs":[{"name":"member","type":"address","indexed":true,"internalType":"address"},{"name":"oldBalance","type":"int256","indexed":false,"internalType":"int256"},{"name":"newBalance","type":"int256","indexed":false,"internalType":"int256"}],"anonymous":false},{"type":"event","name":"ExpenseAccepted","inputs":[{"name":"expenseId","type":"uint256","indexed":true,"internalType":"uint256"},{"name":"participant","type":"address","indexed":true,"internalType":"address"}],"anonymous":false},{"type":"event","name":"ExpenseCancelled","inputs":[{"name":"expenseId","type":"uint256","indexed":true,"internalType":"uint256"}],"anonymous":false},{"type":"event","name":"ExpenseCreated","inputs":[{"name":"expenseId","type":"uint256","indexed":true,"internalType":"uint256"},{"name":"payer","type":"address","indexed":true,"internalType":"address"},{"name":"amount","type":"uint256","indexed":false,"internalType":"uint256"},{"name":"ipfsCid","type":"string","indexed":false,"internalType":"string"}],"anonymous":false},{"type":"event","name":"ExpenseSettled","inputs":[{"name":"expenseId","type":"uint256","indexed":true,"internalType":"uint256"}],"anonymous":false},{"type":"event","name":"Withdrawn","inputs":[{"name":"member","type":"address","indexed":true,"internalType":"address"},{"name":"amount","type":"uint256","indexed":false,"internalType":"uint256"}],"anonymous":false},{"type":"error","name":"GroupDirect__AlreadyAccepted","inputs":[]},{"type":"error","name":"GroupDirect__AlreadySettled","inputs":[]},{"type":"error","name":"GroupDirect__ExpenseNotFound","inputs":[]},{"type":"error","name":"GroupDirect__InvalidExpenseState","inputs":[]},{"type":"error","name":"GroupDirect__InvalidParticipant","inputs":[]},{"type":"error","name":"GroupDirect__NoBalanceToWithdraw","inputs":[]},{"type":"error","name":"GroupDirect__NotAllAccepted","inputs":[]},{"type":"error","name":"GroupDirect__NotMember","inputs":[]},{"type":"error","name":"GroupDirect__NotPayer","inputs":[]},{"type":"error","name":"GroupDirect__TransferFailed","inputs":[{"name":"participant","type":"address","internalType":"address"}]},{"type":"error","name":"NoParticipants","inputs":[]},{"type":"error","name":"ReentrancyGuardReentrantCall","inputs":[]},{"type":"error","name":"SafeERC20FailedOperation","inputs":[{"name":"token","type":"address","internalType":"address"}]},{"type":"error","name":"SharesLengthMismatch","inputs":[]},{"type":"error","name":"SharesSumMismatch","inputs":[{"name":"expected","type":"uint256","internalType":"uint256"},{"name":"actual","type":"uint256","internalType":"uint256"}]},{"type":"error","name":"ZeroAmount","inputs":[]},{"type":"error","name":"ZeroShare","inputs":[]}],"bytecode":{"object":"0x60c060405234801561000f575f5ffd5b5060405161206e38038061206e83398101604081905261002e916103c5565b60017f9b779b17422d0df92223018b32b4d1fa46e071723d6817e2486d003becc55f005583516100925760405162461bcd60e51b815260206004820152600a602482015269456d707479206e616d6560b01b60448201526064015b60405180910390fd5b6001600160a01b0383166100d85760405162461bcd60e51b815260206004820152600d60248201526c24b73b30b634b2103a37b5b2b760991b6044820152606401610089565b60028251101561012a5760405162461bcd60e51b815260206004820152601760248201527f4e656564206174206c656173742032206d656d626572730000000000000000006044820152606401610089565b60148251111561016d5760405162461bcd60e51b815260206004820152600e60248201526d4d6178203230206d656d6265727360901b6044820152606401610089565b5f6101788582610531565b506001600160a01b03808416608052811660a0525f5b82518110156102d6575f8382815181106101aa576101aa6105ef565b602002602001015190505f6001600160a01b0316816001600160a01b0316036102155760405162461bcd60e51b815260206004820152601660248201527f496e76616c6964206d656d6265722061646472657373000000000000000000006044820152606401610089565b6001600160a01b0381165f9081526002602052604090205460ff16156102705760405162461bcd60e51b815260206004820152601060248201526f223ab83634b1b0ba329036b2b6b132b960811b6044820152606401610089565b6001805480820182557fb10e2d527612073b26eecdfd717e6a320cf44b4afac2b0732d9fcbe2b7fa0cf60180546001600160a01b039093166001600160a01b0319909316831790555f91825260026020526040909120805460ff1916821790550161018e565b5050505050610603565b634e487b7160e01b5f52604160045260245ffd5b604051601f8201601f191681016001600160401b038111828210171561031c5761031c6102e0565b604052919050565b80516001600160a01b038116811461033a575f5ffd5b919050565b5f82601f83011261034e575f5ffd5b81516001600160401b03811115610367576103676102e0565b8060051b610377602082016102f4565b91825260208185018101929081019086841115610392575f5ffd5b6020860192505b838310156103bb576103aa83610324565b825260209283019290910190610399565b9695505050505050565b5f5f5f5f608085870312156103d8575f5ffd5b84516001600160401b038111156103ed575f5ffd5b8501601f810187136103fd575f5ffd5b80516001600160401b03811115610416576104166102e0565b610429601f8201601f19166020016102f4565b81815288602083850101111561043d575f5ffd5b8160208401602083015e5f6020838301015280965050505061046160208601610324565b60408601519093506001600160401b0381111561047c575f5ffd5b6104888782880161033f565b92505061049760608601610324565b905092959194509250565b600181811c908216806104b657607f821691505b6020821081036104d457634e487b7160e01b5f52602260045260245ffd5b50919050565b601f82111561052c578282111561052c57805f5260205f20601f840160051c602085101561050557505f5b90810190601f840160051c035f5b81811015610528575f83820155600101610513565b5050505b505050565b81516001600160401b0381111561054a5761054a6102e0565b61055e8161055884546104a2565b846104da565b6020601f821160018114610590575f83156105795750848201515b5f19600385901b1c1916600184901b1784556105e8565b5f84815260208120601f198516915b828110156105bf578785015182556020948501946001909201910161059f565b50848210156105dc57868401515f19600387901b60f8161c191681555b505060018360011b0184555b5050505050565b634e487b7160e01b5f52603260045260245ffd5b60805160a051611a356106395f395f61032801525f818161022c015281816106f701528181610cd001526110680152611a355ff3fe608060405234801561000f575f5ffd5b5060043610610127575f3560e01c8063843592d3116100a9578063c62de7d81161006e578063c62de7d8146102e3578063d875d55714610310578063e4fbb60914610323578063f8b2cb4f1461034a578063fad6036b14610372575f5ffd5b8063843592d31461024e5780639eab525314610276578063a230c5241461028b578063a6fa8a3a146102bd578063c0a7540b146102d0575f5ffd5b80633ccfd60b116100ef5780633ccfd60b146101c757806352e7df5d146101cf5780635daf08ca146101d8578063735e5db61461020357806382bfefc814610227575f5ffd5b806302b629381461012b57806306fdde031461015d578063125ede9d1461017257806327e235e3146101875780633a2e55ec146101a6575b5f5ffd5b61014a610139366004611487565b60046020525f908152604090205481565b6040519081526020015b60405180910390f35b61016561038a565b60405161015491906114d5565b6101856101803660046114e7565b610415565b005b61014a610195366004611487565b60036020525f908152604090205481565b6101b96101b43660046114e7565b6105d8565b604051610154929190611541565b6101856106a2565b61014a60055481565b6101eb6101e63660046114e7565b610774565b6040516001600160a01b039091168152602001610154565b6102166102113660046114e7565b61079c565b6040516101549594939291906115ad565b6101eb7f000000000000000000000000000000000000000000000000000000000000000081565b61014a61025c366004611487565b6001600160a01b03165f9081526004602052604090205490565b61027e61087d565b6040516101549190611604565b6102ad610299366004611487565b60026020525f908152604090205460ff1681565b6040519015158152602001610154565b6101856102cb3660046114e7565b6108dd565b6101856102de3660046114e7565b610972565b6102ad6102f1366004611616565b600960209081525f928352604080842090915290825290205460ff1681565b61014a61031e366004611688565b610d7a565b6101eb7f000000000000000000000000000000000000000000000000000000000000000081565b61014a610358366004611487565b6001600160a01b03165f9081526003602052604090205490565b61037a611060565b604051610154949392919061175f565b5f805461039690611796565b80601f01602080910402602001604051908101604052809291908181526020018280546103c290611796565b801561040d5780601f106103e45761010080835404028352916020019161040d565b820191905f5260205f20905b8154815290600101906020018083116103f057829003601f168201915b505050505081565b61041d611128565b5f81815260066020526040902080546001600160a01b031661045257604051637ed071bf60e11b815260040160405180910390fd5b5f600382015460ff16600281111561046c5761046c611599565b1461048a576040516385b1494360e01b815260040160405180910390fd5b8054336001600160a01b03909116036104b65760405163a3cb6e7b60e01b815260040160405180910390fd5b5f82815260096020908152604080832033845290915290205460ff16156104f05760405163c2c62d6b60e01b815260040160405180910390fd5b5f82815260076020526040812090805b825481101561054f57336001600160a01b0316838281548110610525576105256117ce565b5f918252602090912001546001600160a01b031603610547576001915061054f565b600101610500565b508061056e5760405163b80120eb60e01b815260040160405180910390fd5b5f8481526009602090815260408083203384529091528120805460ff19166001179055600484018054916105a1836117f6565b9091555050604051339085907ff467284cc169b5fcf370cb14f661f31d045b9fdaf1053e6693141545b9b471b4905f90a350505050565b5f818152600760209081526040808320600883529281902083548251818502810185019093528083526060948594909391849183018282801561064257602002820191905f5260205f20905b81546001600160a01b03168152600190910190602001808311610624575b505050505091508080548060200260200160405190810160405280929190818152602001828054801561069257602002820191905f5260205f20905b81548152602001906001019080831161067e575b5050505050905091509150915091565b6106aa611157565b6106b2611128565b335f90815260046020526040812054908190036106e25760405163a7b900a360e01b815260040160405180910390fd5b335f81815260046020526040812055610726907f00000000000000000000000000000000000000000000000000000000000000006001600160a01b03169083611172565b60405181815233907f7084f5476618d8e60b11ef0d7d3f06914655adb8793e28ff7f018d4c76d505d59060200160405180910390a25061077260015f5160206119e05f395f51905f5255565b565b60018181548110610783575f80fd5b5f918252602090912001546001600160a01b0316905081565b5f818152600660205260408120805460018201546003830154600484015460028501805487966060968896879692956001600160a01b03909216949093909260ff16919083906107eb90611796565b80601f016020809104026020016040519081016040528092919081815260200182805461081790611796565b80156108625780601f1061083957610100808354040283529160200191610862565b820191905f5260205f20905b81548152906001019060200180831161084557829003601f168201915b50505050509250955095509550955095505091939590929450565b606060018054806020026020016040519081016040528092919081815260200182805480156108d357602002820191905f5260205f20905b81546001600160a01b031681526001909101906020018083116108b5575b5050505050905090565b6108e5611128565b806108ef816111ac565b5f82815260066020526040812090600382015460ff16600281111561091657610916611599565b14610934576040516385b1494360e01b815260040160405180910390fd5b60038101805460ff1916600217905560405183907f9e62696c18024b16cc84263d5bae54bdbcf0e9cb2f23d1536abd75ef70c7df22905f90a2505050565b61097a611157565b610982611128565b8061098c816111ac565b5f82815260066020526040812090600382015460ff1660028111156109b3576109b3611599565b146109d1576040516385b1494360e01b815260040160405180910390fd5b5f838152600760209081526040808320600890925282208354919290916001600160a01b031690805b8454811015610a8a575f858281548110610a1657610a166117ce565b5f918252602090912001546001600160a01b03908116915084168103610a3f5760019250610a81565b5f8981526009602090815260408083206001600160a01b038516845290915290205460ff16610a81576040516301b9a73d60e21b815260040160405180910390fd5b506001016109fa565b5083545f90610a9990836111e2565b90508086600401541015610ac0576040516301b9a73d60e21b815260040160405180910390fd5b60038601805460ff191660011790555f805b8654811015610bd1575f878281548110610aee57610aee6117ce565b5f91825260208220015488546001600160a01b039091169250889084908110610b1957610b196117ce565b905f5260205f2001549050866001600160a01b0316826001600160a01b031614610bc7576001600160a01b0382165f908152600360205260408120805491839190610b64838561180e565b90915550506001600160a01b0383165f81815260036020908152604091829020548251858152918201527f3bb4f7f8744b5caf9100b5462511bed824037408fdd7295c5f58cebe98b7b9bb910160405180910390a2610bc38286611834565b9450505b5050600101610ad2565b508015610c56576001600160a01b0384165f908152600360205260408120805491839190610bff8385611847565b90915550506001600160a01b0385165f81815260036020908152604091829020548251858152918201527f3bb4f7f8744b5caf9100b5462511bed824037408fdd7295c5f58cebe98b7b9bb910160405180910390a2505b5f5b8654811015610d02575f878281548110610c7457610c746117ce565b5f91825260208220015488546001600160a01b039091169250889084908110610c9f57610c9f6117ce565b905f5260205f2001549050866001600160a01b0316826001600160a01b031614610cf857610cf86001600160a01b037f000000000000000000000000000000000000000000000000000000000000000016833084611211565b5050600101610c58565b506001600160a01b0384165f9081526004602052604081208054839290610d2a908490611834565b909155505060405189907f0f645877fe838126f91b4e7f0c2002e96576b70d9d3483c64ad47a4c586fbf2b905f90a25050505050505050610d7760015f5160206119e05f395f51905f5255565b50565b5f610d83611128565b81610dc65760405162461bcd60e51b815260206004820152600e60248201526d115b5c1d1e4812541194c810d25160921b60448201526064015b60405180910390fd5b610dd0868561124d565b610ddb888686611291565b5f5b86811015610e505760025f898984818110610dfa57610dfa6117ce565b9050602002016020810190610e0f9190611487565b6001600160a01b0316815260208101919091526040015f205460ff16610e485760405163b80120eb60e01b815260040160405180910390fd5b600101610ddd565b5060058054905f610e60836117f6565b9190505590506040518060c00160405280336001600160a01b0316815260200189815260200184848080601f0160208091040260200160405190810160405280939291908181526020018383808284375f92018290525093855250506020909201915081525f6020808301829052426040938401528482526006815290829020835181546001600160a01b0319166001600160a01b03909116178155908301516001820155908201516002820190610f1890826118d8565b50606082015160038201805460ff19166001836002811115610f3c57610f3c611599565b02179055506080820151600482015560a0909101516005909101555f5b8681101561100e575f828152600760205260409020888883818110610f8057610f806117ce565b9050602002016020810190610f959190611487565b81546001810183555f928352602080842090910180546001600160a01b0319166001600160a01b0393909316929092179091558382526008905260409020868683818110610fe557610fe56117ce565b8354600180820186555f9586526020958690209290950293909301359201919091555001610f59565b50336001600160a01b0316817f80d44b6da15b95e849105ee93210a3f0cb3de6c31c907007cc55361e3125182b8a868660405161104d93929190611997565b60405180910390a3979650505050505050565b60605f5f5f5f7f000000000000000000000000000000000000000000000000000000000000000060018054905060055483805461109c90611796565b80601f01602080910402602001604051908101604052809291908181526020018280546110c890611796565b80156111135780601f106110ea57610100808354040283529160200191611113565b820191905f5260205f20905b8154815290600101906020018083116110f657829003601f168201915b50505050509350935093509350935090919293565b335f9081526002602052604090205460ff1661077257604051632fa188c360e11b815260040160405180910390fd5b61115f61136e565b60025f5160206119e05f395f51905f5255565b61117f838383600161139d565b6111a757604051635274afe760e01b81526001600160a01b0384166004820152602401610dbd565b505050565b5f818152600660205260409020546001600160a01b03163314610d775760405163a3cb6e7b60e01b815260040160405180910390fd5b5f8115611208575f83116111f6575f611201565b6112016001846119cc565b905061120b565b50815b92915050565b61121f8484848460016113ff565b61124757604051635274afe760e01b81526001600160a01b0385166004820152602401610dbd565b50505050565b815f0361126d576040516308b6a47360e41b815260040160405180910390fd5b80821461128d576040516328658a1160e11b815260040160405180910390fd5b5050565b825f036112b157604051631f2a200560e01b815260040160405180910390fd5b5f8190036112d2576040516308b6a47360e41b815260040160405180910390fd5b5f805b82811015611343578383828181106112ef576112ef6117ce565b905060200201355f036113155760405163fc6f967760e01b815260040160405180910390fd5b838382818110611327576113276117ce565b90506020020135826113399190611834565b91506001016112d5565b50838114611247576040516314fe468960e11b81526004810185905260248101829052604401610dbd565b5f5160206119e05f395f51905f525460020361077257604051633ee5aeb560e01b815260040160405180910390fd5b60405163a9059cbb60e01b5f8181526001600160a01b038616600452602485905291602083604481808b5af1925060015f511483166113f35783831516156113e7573d5f823e3d81fd5b5f873b113d1516831692505b60405250949350505050565b6040516323b872dd60e01b5f8181526001600160a01b038781166004528616602452604485905291602083606481808c5af1925060015f5114831661145b57838315161561144f573d5f823e3d81fd5b5f883b113d1516831692505b604052505f60605295945050505050565b80356001600160a01b0381168114611482575f5ffd5b919050565b5f60208284031215611497575f5ffd5b6114a08261146c565b9392505050565b5f81518084528060208401602086015e5f602082860101526020601f19601f83011685010191505092915050565b602081525f6114a060208301846114a7565b5f602082840312156114f7575f5ffd5b5035919050565b5f8151808452602084019350602083015f5b828110156115375781516001600160a01b0316865260209586019590910190600101611510565b5093949350505050565b604081525f61155360408301856114fe565b82810360208401528084518083526020830191506020860192505f5b8181101561158d57835183526020938401939092019160010161156f565b50909695505050505050565b634e487b7160e01b5f52602160045260245ffd5b60018060a01b038616815284602082015260a060408201525f6115d360a08301866114a7565b9050600384106115f157634e487b7160e01b5f52602160045260245ffd5b6060820193909352608001529392505050565b602081525f6114a060208301846114fe565b5f5f60408385031215611627575f5ffd5b823591506116376020840161146c565b90509250929050565b5f5f83601f840112611650575f5ffd5b50813567ffffffffffffffff811115611667575f5ffd5b6020830191508360208260051b8501011115611681575f5ffd5b9250929050565b5f5f5f5f5f5f5f6080888a03121561169e575f5ffd5b87359650602088013567ffffffffffffffff8111156116bb575f5ffd5b6116c78a828b01611640565b909750955050604088013567ffffffffffffffff8111156116e6575f5ffd5b6116f28a828b01611640565b909550935050606088013567ffffffffffffffff811115611711575f5ffd5b8801601f81018a13611721575f5ffd5b803567ffffffffffffffff811115611737575f5ffd5b8a6020828401011115611748575f5ffd5b602082019350809250505092959891949750929550565b608081525f61177160808301876114a7565b6001600160a01b03959095166020830152506040810192909252606090910152919050565b600181811c908216806117aa57607f821691505b6020821081036117c857634e487b7160e01b5f52602260045260245ffd5b50919050565b634e487b7160e01b5f52603260045260245ffd5b634e487b7160e01b5f52601160045260245ffd5b5f60018201611807576118076117e2565b5060010190565b8181035f83128015838313168383128216171561182d5761182d6117e2565b5092915050565b8082018082111561120b5761120b6117e2565b8082018281125f831280158216821582161715611866576118666117e2565b505092915050565b634e487b7160e01b5f52604160045260245ffd5b601f8211156111a757828211156111a757805f5260205f20601f840160051c60208510156118ad57505f5b90810190601f840160051c035f5b818110156118d0575f838201556001016118bb565b505050505050565b815167ffffffffffffffff8111156118f2576118f261186e565b611906816119008454611796565b84611882565b6020601f821160018114611938575f83156119215750848201515b5f19600385901b1c1916600184901b178455611990565b5f84815260208120601f198516915b828110156119675787850151825560209485019460019092019101611947565b508482101561198457868401515f19600387901b60f8161c191681555b505060018360011b0184555b5050505050565b83815260406020820152816040820152818360608301375f818301606090810191909152601f909201601f1916010192915050565b8181038181111561120b5761120b6117e256fe9b779b17422d0df92223018b32b4d1fa46e071723d6817e2486d003becc55f00a2646970667358221220fd49bc5132066cd13713d61bcff3bae3cb1c1b82f374246d6d2c12acddec266564736f6c63430008210033","linkReferences":{}},"methodIdentifiers":{"CREATOR()":"e4fbb609","TOKEN()":"82bfefc8","acceptExpense(uint256)":"125ede9d","balances(address)":"27e235e3","cancelExpense(uint256)":"a6fa8a3a","createExpense(uint256,address[],uint256[],string)":"d875d557","expenseCount()":"52e7df5d","getBalance(address)":"f8b2cb4f","getExpense(uint256)":"735e5db6","getExpenseParticipants(uint256)":"3a2e55ec","getGroupInfo()":"fad6036b","getMembers()":"9eab5253","getWithdrawableBalance(address)":"843592d3","hasAccepted(uint256,address)":"c62de7d8","isMember(address)":"a230c524","members(uint256)":"5daf08ca","name()":"06fdde03","settleExpense(uint256)":"c0a7540b","withdraw()":"3ccfd60b","withdrawableBalance(address)":"02b62938"},"id":38}